:020000040800F2
:100000000050002079010008B1210008B12100084A
:10001000B1210008B1210008B1210008B121000878
:10002000B1210008B1210008B1210008B321000866
:10003000B1210008B1210008B1210008691B0008A6
:10004000B1210008B1210008B1210008B121000848
:10005000B1210008B1210008B1210008B121000838
:10006000B1210008B1210008B1210008B121000828
:10007000B1210008B1210008B1210008B121000818
:10008000B1210008B1210008B1210008B121000808
:10009000B1210008B1210008B1210008B1210008F8
:1000A000B1210008B1210008B1210008B1210008E8
:1000B000B1210008B1210008B1210008B1210008D8
:1000C0004D4150304000000000000008A029000011
:1000D000A00000000000000050BE92600000000080
:1000E0000000000000000000000000000000000010
:1000F0000000000000000000000000000000000000
:10010000F0B5CE46474615042D0C2E0080B50704E9
:10011000140C3F0C9946030C7E435D4367436343D5
:100120007F19340CE4199C46A54203D980235B0255
:100130009846C4444B46514343433604360C250C81
:1001400024046544A4195918491920000CBC904690
:100150009946F0BD02B4714649084900095C49005E
:100160008E4402BC7047C04610B5024B00205B694C
:10017000984710BD08290008F0B5384D384C85B0B7
:10018000641B00F0C3F82100280000F0E7F8002805
:1001900002D1012000F0D8F82100280001F0CCFBAA
:1001A0000028F6D001F0D8FB01900028F1D02D4FA7
:1001B0002D493800C91B00F0D1F82C4C029023695E
:1001C00003939847029B002B04D0002802D13800EB
:1001D00001F0C8FB236A03939847A36B03939847E6
:1001E000A36A039398470500E36B012003939847A4
:1001F0001F4E019A3100280000F0CCF8029B002B22
:1002000004D0002804D1FFF7AFFFE0E7002806D0B4
:100210003100280000F02EF80028F4D0BAE7E36A95
:1002200002939847019A3100040000F0B3F80028C7
:100230000BD1019A3100280000F0ACF8002805D15C
:100240000324FFF791FF2000A4E7250031002800D8
:1002500000F010F8041EF4D1D5E7C04600000008F5
:10026000005000080050000800F0020808290008AB
:10027000F0300020F0B5CA680B6985B0D318204A69
:1002800000939C181F4B8D68240B9B692403060068
:1002900021002800019398470423002811D0A319B6
:1002A00034000193AB1B1B190293019B9C420BD39F
:1002B0000099280000F052F8424250410723404282
:1002C0000340180005B0F0BD80220E4F52017B6A3A
:1002D0000D4920000393984700280CD08022FB6929
:1002E00052010949029803939847002805D08023BA
:1002F0005B01E418D6E70523E3E70623E1E7C04600
:10030000FF0F000008290008343100200848094A7E
:1003100010B5121A084901F051FA0848084A00219C
:10032000121A01F08DFA074B1B68984710BDC046A2
:1003300000300020503000205029000850300020AC
:100340003441002008290008024B10B51860024B08
:100350009B689847303100200829000830B50B0011
:1003600091B00200040001F0B5FA051E10D0C26879
:10037000002320322100684600F05CFFE9686846EF
:100380006118203101F0A0F9030058425841C0B271
:1003900011B030BDF0B59BB007928022484B494C5C
:1003A0005B6A0E0052012100050006939847002861
:1003B00002D100201BB0F0BD80212000490101F0D6
:1003C000BBFA011EF5D04022300001F0F7F9802180
:1003D0003269F36849019B182000B26801F07AFA8B
:1003E0000028E6D00AA801F07FF92F0021000022A2
:1003F000F368EB1820330593059B9F4240D30023FD
:1004000005980193401B00900AA801F07BF92D4C40
:10041000F068A02228182100069B98470028C8D021
:10042000402520002A000AA9A03001F0C7F90022C7
:10043000002308920993079B802202930023224EF7
:100440000092019308A9214A300000F05BFF089A4E
:100450000890089B55401D4331000AA8089501F0FB
:1004600033F9089B210018430890079800F008FD15
:10047000089B18430890089B58425841C0B299E71E
:10048000002A96D1059BDC1B80235B019C4200D98E
:100490001C00AF420BD1220000230A490AA800F039
:1004A000FFFC084B211A3F19C9180200A4E72200DB
:1004B00004493800069B98470028ECD179E7C046EC
:1004C0000829000834310020143200209431002023
:1004D000F0B5DE464E4657464546834681460022E5
:1004E000E0B58BB04B461E685F68802300245B023A
:1004F000F61867414B461E605F60531C9A46002108
:100500000E20D30F90424B4151464B43DB005B44DE
:100510009846310C3B041943009101204042C11719
:100520003B140193009C019D24184D41630FE90089
:100530001943E3000293039102980399001969415A
:1005400008900991830F89001943089B05919B002E
:10055000049304980599001969410F3A089009918C
:100560005142514100230A0008980999FFF7C8FD3C
:10057000434624184D411A685B68A4185D41434600
:100580001C605D60330C1B0406934B4607971A688A
:100590005B6806980799121A8B4149460CC152466E
:1005A0008946102A9ED10BB03CBC90469946A24683
:1005B000AB46F0BDF0B50F00C6465242D3178037A8
:1005C0009C46B84600B56746066845680C684B68A7
:1005D00074406B4014403B405D406640066045609F
:1005E0000D6808306C400C604C6863404B6008310B
:1005F0004145E8D104BC9046F0BDC046F0B54E463A
:100600004546DE465746E0B5C7B026AB0E0005901E
:100610009846180080360CC90CC0B142FBD126A800
:10062000FFF756FF26A8FFF753FF26A8FFF750FF56
:1006300002239B4606AB994622AB9A46269A279BF5
:100640001900012310003A4A5B42801859414B4679
:1006500001261860596006AB994626AAB446009058
:10066000019103E030003900009001919668D7684D
:1006700001213048494236184F4101990098090438
:10068000000C0843614601400C000025361BAF41B9
:1006900019889E60DF6019605D60083308329A45F2
:1006A000E0D14499459A4B4600910192080011000F
:1006B0004A4601271B6F526F1F4E7F4280197941B6
:1006C00016041A0C324366461640002203924A462C
:1006D0001B0402961B0C1367029E039F0023801BC2
:1006E000B94153679067D16762460B04000C184309
:1006F0008243494626A8FFF75DFF01235B429C46E3
:10070000E3445B46002B99D1059B404619002031FC
:10071000026808301A70120A5A7002339942F7D1EF
:1007200047B03CBC90469946A246AB46F0BDC04699
:100730001300FFFF0100FFFF0180FFFF30B50D0038
:1007400091B0010008AC6846FFF758FF290020006F
:10075000FFF754FF002100236A46E05CD25C0133BE
:1007600042401143202BF7D1481EC005C00F01386D
:1007700011B030BDF0B52026C646B446804600B55F
:100780008C4400234E780025320216001F000C789E
:10079000023136196F41C0C08C45F2D14346424602
:1007A0009B6F5B045B0C93670023D36704BC90468C
:1007B000F0BDC046F0B557464546DE464E46E0B56C
:1007C000C3B004AB02900C009A4600200021150033
:1007D00042AA03C39342FCD1A146802380214B440B
:1007E00001938C462B00634498465346D346AA4651
:1007F00003934B4655461E685F685C460CCD30003F
:100800003900FFF77DFC226863688018594103C4F2
:10081000A845F3D108239C46019BE144E344994554
:10082000E7D1039B22AD9A461C002100803126228D
:10083000086849680023FFF763FC22686368801832
:10084000594103C4A542F0D15146029B24AA30C9A4
:1008500030C38A42FBD1029C2000FFF739FE200002
:10086000FFF736FE43B03CBC90469946A246AB46E5
:10087000F0BDC046F0B5CE46474680B50C00A1B0ED
:1008800081460E000B00E8466A46803403CB03C263
:10089000A342FBD1FC2402276A4669466846651ECE
:1008A000FFF788FF2B00BB4306D03200694668463D
:1008B000FFF780FF631C01D02C00EDE7484620A91C
:1008C00044460CCCA0460CC08C42F9D121B00CBCE3
:1008D00090469946F0BDC046F0B58023DE4683467B
:1008E00057464E4645465B44E0B5060005001F00EE
:1008F0006D4CA544019102AC2B0003CD80331A68E6
:100900005B68121A8B410CC4AF42F5D182AA9046A3
:100910008022019C9446230063449946BA46AC4623
:1009200027004D46B1464646230003CC80331A6863
:100930005B68121A8B410CC6AC42F5D1654602A920
:1009400082AA0800FFF736FF22AB9C462B004E46DA
:100950006546A4461C0033008033186859680CCEE5
:1009600012184B410CC5A642F5D1644645463B00E2
:100970008033186859680CCF12184B410CC5BC4223
:10098000F5D122A9080082AAFFF714FF019E5C4658
:1009900032008134FF348132FF32210042A8FFF758
:1009A00009FF42A90800414AFFF704FF5B463200F5
:1009B0005D1CFF350132290062A8FF32FFF7FAFE05
:1009C00062A982A80A684B6892185B410CC18842F0
:1009D000F8D1002602AA31009446A2AB9F1922AB9F
:1009E0009B1961441A685B6808684968121A8B4150
:1009F00008363A607B60802EECD10026C2AB9F198E
:100A000042AA62AB91199B191A685B680868496829
:100A1000121A8B4108363A607B60802EEED1002698
:100A2000E2AB9F1962AB9A1942AB9B1910685168EF
:100A30001A685B6812184B4108363A607B60802E5A
:100A4000EED10026FFAB0C339F1902A922AB9A19F5
:100A50008C4610685168330063441A685B6812184A
:100A60004B4108363A607B60802EEBD1C2AAA2A926
:100A70005846FFF79FFEFFA9E2AA50460C31FFF748
:100A800099FEC2AAE2A92800FFF794FEFFAA0C3241
:100A9000A2A92000FFF78EFE054B9D443CBC90466A
:100AA0009946A246AB46F0BD74FBFFFFC822000882
:100AB0008C04000030B50C00E9B001310500FF31B5
:100AC00048A8FFF7D7FE48AA210008A8FFF772FE42
:100AD000210048AA28A88031FFF76CFE28A9280029
:100AE000FFF78CFD08A96846FFF788FD6B461A786A
:100AF00001231340EA7FDB015340EB7769B030BD3F
:100B0000F0B5DE464E464546574681460400E0B500
:100B10003A4B83B08B46019280341A0000200021AA
:100B20004D4601E01068516803C50832A542F9D16D
:100B30004946A846324A4D1CFF35140001200021C9
:100B4000464601E02068616803C60834AE42F9D128
:100B50004C468134FF3401200021350001E010684B
:100B6000516803C50832AC42F9D1802292004A4450
:100B7000002000212C0001E01868596803C40833E4
:100B80009442F9D1FF23A0469A465346019ADB10BE
:100B9000D75C0723524613401F4101231F404346A1
:100BA0005D464C46D8461E00290020003A0080349D
:100BB000FFF700FD8035A642F6D13300494658467E
:100BC00046469846FFF788FE49464846FFF784FEAA
:100BD0004D46310028003A008035FFF7EBFC8036A7
:100BE000AC42F6D153465A1E9246CED203B03CBC1C
:100BF00090469946A246AB46F0BDC0465030002014
:100C000048280008F0B5C64600B51B4C1B4AA54451
:100C1000050088466B46944620AC1948002101E047
:100C20001068516803C30832A342F9D1154A40AE97
:100C300014001548002101E02068616803C30834EE
:100C4000B342F9D1114C60A80126002701E02668C3
:100C50006768C0C308349842F9D16146FFF7AAFD1E
:100C6000424669462800FFF74BFF80239B009D44C6
:100C700004BC9046F0BDC04600FEFFFF48270008B8
:100C80001AD50000C8270008586600004828000848
:100C9000F0B54546DE4657464E46E0B589B00A00F7
:100CA0000B000491CC2149008C4663449846130004
:100CB000982294460832634494469B46624B4546CC
:100CC00063449946FF239A4605902C00002000219A
:100CD000A03C5D4EED22002300900191A04601E072
:100CE00032687368286E696E070F09013943000185
:100CF000FFF706FA009A019B121A8B4141460868D9
:100D0000496812184B4180200021801859410F0674
:100D1000040A3C4300940C12019457460400BC435F
:100D20000294039102980399121A8B4141460CC117
:100D300008368846B145D3D128686968009A019B76
:100D400012184B4100242A606B600023083DAB66FB
:100D5000EC66AB45B9D1082084463B49049A61440E
:100D600088468021150049008C462900F8310E0084
:100D7000FF218B46002113008946414663449A4671
:100D800014000295ED223500002300910026002773
:100D900002E041460CC988466968286809070009CD
:100DA000084369680911FFF7ABF932003B00121ADA
:100DB0008B412068616812184B411906160A0E43D0
:100DC00059461F124B460A40226063600834A24510
:100DD000DFD132003B000099029D88461A49A146A6
:100DE0004F1CAA46FF37049EED20002114001D0071
:100DF00002E0434603CB984622002B00FFF780F920
:100E000032687368121A8B410CC64745F1D10599B7
:100E10004C4655460E0069682F6808063A0A024398
:100E20000B12A868E9688018594108352860696084
:100E300037700136AC42EED109B03CBC90469946C1
:100E4000A246AB46F0BDC0464826000871B5FFB0CB
:100E500002006B460100002580AE0C785D601C60CE
:100E600008330131B342F8D101000023403113703F
:100E700001328A42FBD16946FFF70AFF7FB071BD9C
:100E800030B500230024C25CCD5C01336A401443BA
:100E9000202BF8D1601EC005C00F013830BDC04600
:100EA000F0B54E4645465746DE468C464021E0B5F5
:100EB000EBB08946159202001F004A441AAB3AADC6
:100EC0001E001793B946030090462F0018901D008E
:100ED00019000020002308350C781A0E00021B02AE
:100EE0000131234310438D42F6D13B60336078607B
:100EF0007060083708360B004145E8D14F4619911C
:100F0000002F00D188E1634608331693159B139791
:100F10001293169C4AAD2000002300210838067861
:100F20001A0E09021B020130334311438442F6D1E9
:100F30002B6069606AAB08350834AB42EBD1BA4B21
:100F4000BA4C08331493BA4B00221E0027000992B2
:100F500000232AAA3AA9D218C91808330868496890
:100F600010605160402BF4D10F210998429A014042
:100F70008C464699439B0D00479995430800449938
:100F800098430C0045991440194065400A95484023
:100F90009D04910B0D439404990B0B900C43980303
:100FA000910C08439103884681464046990C0143C1
:100FB000484661406840DC05550A5B0AD205254376
:100FC0001343584069400C900D910C980D990A9A62
:100FD0000B9B12184B414898499912184B414AA84B
:100FE0006146804692197B41C900414408684968BE
:100FF00012184B413C99009201930B003D9A1D0041
:1010000014003E983A9F3F993B9E45404C40184003
:101010003D401140454034400E954C403501390F5C
:1010200038010D43310F0F940143BC08B00704434E
:10103000BB07B0081843454061407006FC09F6093B
:101040007F0620433E437540414011911095109C0E
:10105000119D0E980F9900196941009A019B801803
:101060005941389039913098319912184B4100907C
:1010700001910020309231932AAC0723C0CC3AAAC8
:10108000904601300340DB0043441E605F60082847
:10109000F3D163460F2B09D0099B01330993502BE1
:1010A00000D17CE0149BC0CB149351E74AAB0027DE
:1010B0009C46009700990F220B00093313404AAA5F
:1010C0009046DB0043441C685D680F2301310B40F0
:1010D000DB00434458681A68C607B24657465608AC
:1010E0003743D607B1460F23BA464F4600910D311C
:1010F000460819403743C90006064144B046B94680
:101100004746160A37431606B346B8465F46060AF0
:10111000069407953E434446574667404C46D209DD
:10112000664044062243C009574046406246069C3A
:10113000079D02970396029E039FA4197D4116689E
:1011400057680B684968DA0C4803A4197D411043BD
:101150005E03CA0C16438046CA00580F0243480F6C
:1011600081464F46D8003843474672409B098E0659
:101170003343890978404A40584004900592049AC4
:10118000059BA4185D41634630C300999C46102915
:1011900090D1099B01330993502B00D082E7179817
:1011A0003AA90A684B680468456812196B410CC17A
:1011B0000CC04AAB8B42F4D1129B139C8021494254
:1011C000CA175B185441169A1293139480321692E0
:1011D000002C00D09DE6129B7F2B00D999E67F233F
:1011E000159A189C1A40179D159207222B6869685A
:1011F0000806A3541B0A0343090A013AF8D2199BB3
:1012000008340835A342F0D115986BB03CBC904629
:101210009946A246AB46F0BD159B7F2B00D972E6DE
:10122000189C179DE1E7C046C8230008982F8A4202
:1012300022AE28D7F0B5CE46474680B58946150080
:101240001E00D3B0040000236A222D4900E05A5C3E
:1012500002A8C2540133402BF9D12A003300494679
:1012600002A8FFF71DFE7F2028402B1A12A99846DE
:1012700000220B0052AF1A700133BB42FBD1002891
:1012800035D04F4600234744FA5CCA540133984294
:10129000FAD180230B546F282BD980220023F82702
:1012A000F720520000920193730F0B54F600680F61
:1012B000BC4606430720ED008C4467463D54370684
:1012C0002D0A3D43360A0138F7D2009A019B02A845
:1012D000FFF7E6FD002302AAD25CE2540133402B63
:1012E000F9D1002053B00CBC90469946F0BD802344
:1012F0000B70802200237827772000920193D3E798
:10130000C8280008F0B54E46DE4657464546E0B5CB
:10131000160001225242D317D84C0A604B60A544F4
:1013200002AA9446D64B009063441B680191002B9F
:1013300000D1C1E102AB9C46C425D423ED00DB0003
:10134000634465449B46CF4A2B000120002101E005
:101350001068516803C308329B45F9D102AAEA23F9
:101360009446DB0063441968B423DB00634418002F
:10137000FFF700FA2AAB9A4602AAB4239446DB0090
:1013800063441A0019005046FFF714FA4AABBE4AEC
:101390001800514699462F00FFF70CFA53462A00D1
:1013A00003CA1C685D68241A8D412000290003C30C
:1013B0009945F5D13D00494630006AAC0E684F684A
:1013C0000CCD92197B410CC18C42F7D14A4649465B
:1013D0008AAF06002000FFF7EDF922002100380057
:1013E000FFF7E8F922003900AAA8FFF7E3F952460F
:1013F000AAA90AA8FFF7DEF90AA94A460800FFF7DA
:10140000D9F90AAB98462AAB9A46CAAD2A00434698
:10141000544603CB03C29C42FBD1A246F924CAAA7C
:1014200011001000FFF7C6F9002C06D0CAA90AAABD
:101430000800FFF7BFF9631C01D0013CEFE743460A
:1014400032003800EAA9C0CDC0C38D42FBD10AA941
:101450001600070052460800FFF7ACF90AA9080079
:101460004A46FFF7A7F90AA908004A46FFF7A2F97A
:1014700002A8A4238446DB00634418004A460AA954
:10148000FFF798F902AAA4239446DB0063441A00EC
:101490001900CAA8FFF78EF9CAA908004A46FFF743
:1014A00089F95146CAA8FFF749F9002800D0D3E0CE
:1014B00002AAA4239446DB0063441A001900CAA8B8
:1014C000FFF778F9CAA908004A46FFF773F95146B1
:1014D000CAA8FFF733F98046002800D098E002AA96
:1014E000A4239446DB00634419001000FFF786F83C
:1014F000012202AB1B7802A91A40EA238C46DB00CA
:1015000063441B68DB7FDB099A4200D1AFE002AA8B
:10151000B4239446DB0063441A00A423DB00634435
:1015200019005846FFF746F9E92302AA9446DB0062
:101530006344196800230098F25CC25401338B4263
:10154000FAD102AAEA2394460098DB0063441A68A1
:101550000300403020331178013219700133984272
:10156000F9D102AAE9239446DB0063441A685B6858
:101570000099AAA8FFF75EFEAAA8FFF767FC02A9D8
:10158000A4238C46DB0063441900AAAACAA8FFF76B
:10159000B7FA02AAA42394463100DB006344180082
:1015A0002031FFF72FFB02AAA4239446DB006344FB
:1015B0001900CAA8FFF790F9CAA93800FFF77AFA0C
:1015C000E92302AA944640204042C117DB0063444D
:1015D0005C681B680025C01861410024735D7A5D5A
:1015E000013553401C43202DF8D1631EDB051BD46D
:1015F00008430DD002A9E9228C460021D2006244A2
:101600001268009B403A9A18197001339A42FBD134
:1016100001235B42984640461C4B9D443CBC90468F
:101620009946A246AB46F0BD03000B4310D0E92417
:1016300002ADAC46E400644424683300A446009A3A
:10164000403366441C780133147001329E42F9D154
:10165000019B18605960DEE702A9A4238C46DB00D9
:1016600063440B4A19001800FFF7A4F820E7A423ED
:10167000DB006344074A002000210FE0D4F8FFFF9D
:101680004C07000048280008482200082C070000EA
:101690004823000850300020106851681C685D68BD
:1016A000001BA94103C3B42102A88446C9006144B8
:1016B00008329942F0D12AE7E923DB0063441B6832
:1016C0003F2B00D936E6A3E730B500230024C25CE7
:1016D000CD5C01336A401443402BF8D1601EC00535
:1016E000C00F013830BDC0466A220023044900E023
:1016F0005A5CC2540133402BFAD100207047C046D7
:10170000C8280008F0B504007F20C6461040131A10
:1017100098468C46002300B5D2B0589E599FE25C93
:1017200002A9CA540133402BF9D112AD2B0000227B
:1017300052A91A7001339942FBD1002835D0614675
:1017400000234144CA5CEA5401339842FAD1802311
:101750002B546F282BD980220023F820F721520028
:10176000009201937B0F6B54FF00710F84460F436F
:101770000721F600AC44604646543806360A064354
:101780003F0A0139F7D2009A019B290002A8FFF70E
:1017900087FB002302AAD25CE2540133402BF9D12B
:1017A000002052B004BC9046F0BD80232B708022F4
:1017B00000237820772100920193D3E7F0B505004C
:1017C0000F2A2FD90B0003439B0734D116000C00BE
:1017D0000300103E350901352D01451927681F60AA
:1017E00067685F60A7689F60E7681034DF60103348
:1017F0009D42F3D10F239E4310368519891913405A
:10180000032B1AD91E1F0023B4080134A400CF589B
:10181000EF500433A342FAD10324A643331D2240E0
:10182000C918ED18002A05D00023CC5CEC54013314
:101830009342FAD1F0BD0500F6E71A00F2E7C04680
:10184000F0B5830743D0541E002A3FD0CEB2020029
:10185000032502E01A00013C38D3531C16702B42BA
:10186000F8D1032C2AD9FF220A40150215432A0475
:1018700015430F2C14D927001A00103F3E090136DA
:1018800036019E19156055609560D56010329642FC
:10189000F8D10F2297431037DB191440032C0DD9D0
:1018A0001A00271FBE080136B6009E1920C2B24298
:1018B000FCD1032297430437DB191440002C05D0D8
:1018C000C9B21C19197001339C42FBD1F0BD140040
:1018D0000300C6E770B514001D00FF2901D80020E1
:1018E00070BD03689A07FAD1114A10329342F6D3B9
:1018F000104A9342F3D8012243681342EFD0934336
:10190000621CFF329342EAD362199342E7D28021EC
:10191000490000F011F80028E1D083689C42DED134
:101920000369A02BDBD1C368A0339D42D8D2D6E790
:10193000000000200050002003000020FF2908D9EB
:10194000C033044A1968914203D15A68402A00D131
:10195000180070474D415030002802D08368C0689D
:101960001818704770B5040006684568EFF31083D7
:1019700072B6054B5B68984786F30888FF239C4343
:10198000024B1C6062B628470829000808ED00E0F9
:1019900080230D4A10B511680C200B4313600423FB
:1019A0000A4A0B4C11684B4003404B401360022322
:1019B000084A263011680B431360E3689847236B8D
:1019C000984700F041FA10BD2C100240001C005056
:1019D00008290008181C0050194BF0B501251C00FF
:1019E0007F311A682A40FCD1164B174D01271D6024
:1019F000164DC9091D60164B164D1D60164D1D6014
:101A00008225164BAD001E68354302261D60002955
:101A100008D101201A6812490A401A601A68024364
:101A20001A60F0BD026025683D42FCD12568354250
:101A300002D02568B543256080300139E7E7C0460C
:101A4000182002400C200240EFCDAB8905040302B0
:101A500010200240BFAE9D8C1615141304200240C6
:101A6000F7FDFFFFF7B50323019000200F001500DD
:101A70000B40834220D11800019B13439B061BD1CE
:101A8000012313490A681A42FCD12C00114B124A57
:101A90001A60124A1A60124B124A1A60124A1A60ED
:101AA000019B281B39181818002C06D1012001238E
:101AB0000E4A11680B431360FEBDEFF3108672B639
:101AC00000F0BAFB86F310880028F0D0403CE7E72E
:101AD000182002400C200240EFCDAB890504030220
:101AE00010200240BFAE9D8C161514130420024036
:101AF000002070B5084DAC686300AB6083420AD02B
:101B000000F04AF90120E40FEB68640001345C4303
:101B10002B68E4182C6170BDD0300020002383F3C3
:101B200010886422024BDA60633A1A767047C04626
:101B3000D0300020002812D001221F234000104383
:101B40000100D940114202D1013B022BF8D1421CC5
:101B5000024051424A419B181F22D31A9840014B20
:101B600058607047D0300020182070B51F4C236893
:101B70005D1C256020560138032803D8FEF7EAFAD9
:101B8000050D1730002323762FE06368002B2CD03F
:101B9000A360FFF7ADFF0223F5E72369EB1A24D416
:101BA00000F000F9E3685D1925610323EBE7236981
:101BB000EB1A15D4FFF79CFF0223002804D1E36839
:101BC0005B005B19236104232269AD1A0BD463689F
:101BD000A360FFF78DFF0300581E83410133D2E756
:101BE00001235B42F0E75A1CCDD170BDD0300020FC
:101BF00000487047FC170808034B1868013043423F
:101C00005841C0B27047C046FC1708080D4B40420F
:101C10001A6830B5824213D00B4A012411001568AE
:101C20002542FCD1094A0A4C14600A4C1460186021
:101C300001230A681A42FCD1074A11680B4313605A
:101C400030BDC046FC170808182002400C20024096
:101C5000EFCDAB89050403020420024010B500F06B
:101C60004BF910BDAA231B061A0017490868424009
:101C7000120E120642400A60144A11684B401B0EB5
:101C80001B064B4013608023114A1B0511684B4013
:101C90001B0E1B064B40136080220E49D2010B68BD
:101CA00013430B600C4B19680A431A601A680B49FE
:101CB0000A401A6004230A490A681A430A60094A5A
:101CC00011680B4313607047000400500804005073
:101CD0000C0400503810024028100240FFBFFFFFE4
:101CE0000038004004380040F7B54025144C0193FB
:101CF0002668144F354325600025134E0094002AB2
:101D000009D1019B002B05D1009B40321B689343F6
:101D1000009A1360F7BD022433682342FBD00029E8
:101D200001D00D7801313D60012433682342FBD09E
:101D30003B68002801D003700019013ADFE7C04674
:101D4000003800400C380040083800408020C002B5
:101D5000704780204002704710B500F03BF9022325
:101D6000094A302011680B4313601023074A116899
:101D70004B4003404B4013600423054A0549136060
:101D80000B60136010BDC0462C10024000040050D0
:101D900028040050180400500422014B1A607047B8
:101DA000180400500422014B1A60704728040050A8
:101DB0008022054B01305202002800D1704719687B
:101DC0001142FCD00138F7E710E000E070B50128BF
:101DD00008D10426124C2568754025606420FFF761
:101DE000E7FFF9E7EFF3108372B68025FFF7A2FE55
:101DF0000C4C6D020C4A13682B42FCD0013CFFF7DF
:101E0000B3FE002CF6D1BFF34F8F084A084B116880
:101E100008484B4003404B401360BFF34F8FFEE731
:101E20001404005060EA000010E000E00CED00E057
:101E30000400FA050400FFFF10B5024C646BA047D4
:101E400010BDC04608290008002300B5180089B05D
:101E500001221849FFF7F0FF00230122164918005C
:101E6000FFF7EAFF154B6420DB68019398470123D5
:101E7000052213490020FFF7DFFF00231822190075
:101E800002A8FFF7D9FF0F4B029A08209A4209D106
:101E9000062102AB5A791B791202FF3113438B42A0
:101EA00002D80920FEF750FA02ABDB79FF2BF8D1FC
:101EB00009B000BD4E2900084D2900080829000876
:101EC0004829000853464450032337B50C0001A9A4
:101ED0000B70030C4B70030A15008B70C870012344
:101EE00004220020FFF7A8FF00232A002000190089
:101EF000FFF7A2FF01203EBD0122002326495242E6
:101F000030B50A600B602549E0200A600B60244967
:101F100000020A600B6023490A600B600321224A19
:101F200013688B431360C023204A1B0211684B4087
:101F300003404B40136080231D4A5B0011680B4334
:101F4000136080239B0011681942FCD00320194BB9
:101F5000196881431960093019680140FCD10125D5
:101F60001868154C204018601068144C2040144C20
:101F700010602068A84320601068124C2040106058
:101F80001A68114802401A60104B114A1960136810
:101F90007B318B43136030BD281002402410024077
:101FA000201002401C10024010E000E0041002402B
:101FB000001002400C1002400FC0FF80F6FFF6FE3A
:101FC00008100240FFFFFBFFFFFF02FF101002405E
:101FD00000200240F8B5EFF3108372B6802201248E
:101FE0005A4B520019685A480A431A60594A6226E5
:101FF000116801401160196857480140574819603D
:102000000168A143016019685548564C01401960A8
:102010001168554801400020116054490860544936
:102020000C604221534C2568694031406940216071
:102030000121514D494229602860504D2960286096
:102040004F4D296028604F4D29602860116889072D
:1020500002D00230FEF778F980214B484905056827
:102060000D4202D10568294301608020C0264749FE
:1020700000010D687601684030406840086001202A
:102080001D682843186004201D680542FCD090207C
:10209000F8273F4D40012E687F0170403840704066
:1020A000286080200D684000054048D080263948CF
:1020B000760007683E4306608026B6000768374210
:1020C000FCD0002D03D10868334D284008608021E2
:1020D000890418680842FCD18821FD251068C903CD
:1020E00041402D0429404140116080211868490475
:1020F000014319608021890418680842FCD001233B
:1021000021688B434B402360032311688B434B4072
:102110000C21136013680B400C2BFBD11F4A204B82
:102120001A6000221F4B1A601F4B07321A601F4AA9
:102130001168CB435B0F5B074B401360F8BD0E6823
:1021400006430E600E680642FCD0AFE70010024066
:102150000CC0FF800C100240F6FFF6FE0810024093
:10216000FFFFFBFF00000008FFFF02FF101002400E
:1021700008ED00E000200240281002402410024038
:10218000201002401C100240381002400070004035
:102190000410024050100240FFFEFFFFFF7C0000D1
:1021A00014E000E018E000E010E000E020ED00E0C6
:1021B000FEE773B51600FF22120680180D000428F2
:1021C00037D8FDF7C7FF030E121F2D00FFF710FDD4
:1021D000002E02D10224644201E0306000242C6011
:1021E00073BD3000FFF780FAF8E7002EF2D0032429
:1021F0003440EFD1B268230071683068FEF750FEBA
:10220000B060ECE7002EE5D003243440E2D1F3685F
:10221000B26800930194230003CEFFF773FADEE760
:1022200019003000FFF750FA0024A042D7D0033C39
:10223000D5E70124CFE7000001B40248844601BC81
:10224000604700BF01300020A378000000000000BC
:102250005913000000000000CA4D000000000000FB
:10226000EB75000000000000ABD80000000000008B
:1022700041410000000000004D0A00000000000085
:10228000700000000000000098E80000000000005E
:102290007977000000000000794000000000000095
:1022A000C78C00000000000073FE0000000000006A
:1022B0006F2B000000000000EE6C0000000000002A
:1022C000035200000000000059F10000000000006F
:1022D000B226000000000000949B000000000000F7
:1022E000D6EB00000000000056B100000000000026
:1022F00083820000000000009A140000000000002B
:10230000E00000000000000030D1000000000000EC
:10231000F3EE000000000000F2800000000000006A
:102320008E19000000000000E7FC00000000000023
:10233000DF56000000000000DCD9000000000000B3
:102340000624000000000000B0A000000000000013
:102350000E4A000000000000271B000000000000E3
:10236000EEC400000000000078E40000000000005F
:102370002FAD000000000000061800000000000063
:10238000432F000000000000A7D70000000000005D
:10239000FB3D00000000000099000000000000006C
:1023A0004D2B0000000000000BDF000000000000CB
:1023B000C14F000000000000802400000000000069
:1023C000832B00000000000022AE28D7982F8A42FD
:1023D000CD65EF23914437712F3B4DECCFFBC0B55A
:1023E000BCDB8981A5DBB5E938B548F35BC256395A
:1023F00019D005B6F111F1599B4F19AFA4823F9244
:1024000018816DDAD55E1CAB420203A398AA07D8E7
:10241000BE6F7045015B83128CB2E44EBE853124E1
:10242000E2B4FFD5C37D0C556F897BF2745DBE723B
:10243000B196163BFEB1DE803512C725A706DC9BA0
:10244000942669CF74F19BC1D24AF19EC1699BE485
:10245000E3254F388647BEEFB5D58C8BC69DC10F9F
:10246000659CAC77CCA10C2475022B596F2CE92DFF
:1024700083E4A66EAA84744AD4FB41BDDCA9B05C97
:10248000B5531183DA88F976ABDF66EE52513E9888
:102490001032B42D6DC631A83F21FB98C82703B078
:1024A000E40EEFBEC77F59BFC28FA83DF30BE0C655
:1024B00025A70A934791A7D56F8203E05163CA0607
:1024C000706E0E0A67292914FC2FD246850AB72799
:1024D00026C9265C38211B2EED2AC45AFC6D2C4DD2
:1024E000DFB3959D130D3853DE63AF8B54730A65CC
:1024F000A8B2773CBB0A6A76E6AEED472EC9C28128
:102500003B358214852C72926403F14CA1E8BFA282
:10251000013042BC4B661AA89197F8D0708B4BC221
:1025200030BE5406A3516CC71852EFD619E892D1A9
:1025300010A96555240699D62A20715785350EF4C1
:10254000B8D1BB3270A06A10C8D0D2B816C1A419D5
:1025500053AB4151086C371E99EB8EDF4C774827FF
:10256000A8489BE1B5BCB034635AC9C5B30C1C394B
:10257000CB8A41E34AAAD84E73E363774FCA9C5B88
:10258000A3B8B2D6F36F2E68FCB2EF5DEE828F7403
:10259000602F17436F63A57872ABF0A11478C884DD
:1025A000EC39641A0802C78C281E6323FAFFBE9018
:1025B000E9BD82DEEB6C50A41579C6B2F7A3F9BE73
:1025C0002B5372E3F27871C69C6126EACE3E27CA8D
:1025D00007C2C021C7B886D11EEBE0CDD67DDAEAAE
:1025E00078D16EEE7F4F7DF5BA6F1772AA67F0064D
:1025F000A698C8A2C57D630AAE0DF9BE04983F1126
:102600001B471C13350B711B847D0423F577DB28D6
:102610009324C7407BABCA32BCBEC9150ABE9E3CE0
:102620004C0D109CC4671D43B6423ECBBED4C54C76
:102630002A7E65FC9C297F59ECFAD63AAB6FCB5FBA
:102640001758474A8C19446CED0000000000000048
:10265000D300000000000000F500000000000000B2
:102660005C000000000000001A00000000000000F4
:1026700063000000000000001200000000000000E5
:102680005800000000000000D6000000000000001C
:102690009C00000000000000F700000000000000A7
:1026A000A200000000000000DE00000000000000AA
:1026B000F900000000000000DE0000000000000043
:1026C00014000000000000000000000000000000F6
:1026D00000000000000000000000000000000000FA
:1026E00000000000000000000000000000000000EA
:1026F00000000000000000000000000000000000DA
:1027000000000000000000000000000000000000C9
:1027100000000000000000000000000000000000B9
:1027200000000000000000000000000000000000A9
:102730000000000000000000000000000000000099
:1027400010000000000000001AD50000000000008A
:10275000258F000000000000602D00000000000038
:1027600056C9000000000000B2A7000000000000F1
:10277000259500000000000060C700000000000078
:102780002C690000000000005CDC0000000000007C
:10279000D6FD00000000000031E200000000000053
:1027A000A4C0000000000000FE5300000000000074
:1027B0006ECD000000000000D336000000000000D5
:1027C00069210000000000005866000000000000C1
:1027D0006666000000000000666600000000000061
:1027E0006666000000000000666600000000000051
:1027F0006666000000000000666600000000000041
:102800006666000000000000666600000000000030
:102810006666000000000000666600000000000020
:102820006666000000000000666600000000000010
:102830006666000000000000666600000000000000
:1028400066660000000000000100000000000000BB
:102850000000000000000000000000000000000078
:102860000000000000000000000000000000000068
:102870000000000000000000000000000000000058
:102880000000000000000000000000000000000048
:102890000000000000000000000000000000000038
:1028A0000000000000000000000000000000000028
:1028B0000000000000000000000000000000000018
:1028C00000000000000000006A09E667F3BCC908C8
:1028D000BB67AE8584CAA73B3C6EF372FE94F82BAF
:1028E000A54FF53A5F1D36F1510E527FADE682D10C
:1028F0009B05688C2B3E6C1F1F83D9ABFB41BD6BC6
:102900005BE0CD19137E2179591D00085D1C00087C
:10291000CD1D0008B11D0008F91B00080D1C0008A2
:10292000D9190008651A000891190008C91E000885
:102930004D1D0008531D0008651C0008E91C000817
:102940001D1B0008351B00085A0000000099660096
:102950008122104B10B51C68D20022431A6002007D
:102960001C004032091A0B5808C08242FBD10122D8
:10297000094B19681142FCD102211A680A4202D09F
:102980001A688A431A602368044A012013402360AE
:1029900010BDC0460420024018200240F7FBFFFF94
:1029A00034E750EDD5C5B9BB4358406C60F81364AB
:1029B000701281A17D31CBB6E73E0E5BC0694193B9
:1029C000365478BC99773FE5F8ECFD49831A786571
:1029D00079F3888AD85A8FEDD1C2E0DE3CA66267CF
:1029E000CF0DCFE29AC7EFF3DA97484F3A471C8DE5
:1029F0009356509B9C51EB2404A47392EE7EB3DB60
:102A00000265CC355A19A43BD925278371B0EABF9A
:102A1000952F0D347770A9C02D46D0CE307C832001
:102A20008685D14ABD2989490BE82FB6848577452B
:102A30004B306256BEEEA71AABB4323C2413C00D25
:040000050800017975
:00000001FF
